{
    "abi": [
        {
            "type": "constructor",
            "inputs": [
                {
                    "name": "_depositToken",
                    "type": "address",
                    "internalType": "address"
                }
            ],
            "stateMutability": "nonpayable"
        },
        {
            "type": "function",
            "name": "accRewardPerShare",
            "inputs": [],
            "outputs": [
                {
                    "name": "",
                    "type": "uint256",
                    "internalType": "uint256"
                }
            ],
            "stateMutability": "view"
        },
        {
            "type": "function",
            "name": "consensusReached",
            "inputs": [],
            "outputs": [
                {
                    "name": "",
                    "type": "bool",
                    "internalType": "bool"
                }
            ],
            "stateMutability": "view"
        },
        {
            "type": "function",
            "name": "deposit",
            "inputs": [
                {
                    "name": "_amount",
                    "type": "uint256",
                    "internalType": "uint256"
                }
            ],
            "outputs": [],
            "stateMutability": "nonpayable"
        },
        {
            "type": "function",
            "name": "depositFor",
            "inputs": [
                {
                    "name": "_user",
                    "type": "address",
                    "internalType": "address"
                },
                {
                    "name": "_amount",
                    "type": "uint256",
                    "internalType": "uint256"
                }
            ],
            "outputs": [],
            "stateMutability": "nonpayable"
        },
        {
            "type": "function",
            "name": "depositToken",
            "inputs": [],
            "outputs": [
                {
                    "name": "",
                    "type": "address",
                    "internalType": "contract IERC20"
                }
            ],
            "stateMutability": "view"
        },
        {
            "type": "function",
            "name": "donate",
            "inputs": [
                {
                    "name": "_amount",
                    "type": "uint256",
                    "internalType": "uint256"
                }
            ],
            "outputs": [],
            "stateMutability": "nonpayable"
        },
        {
            "type": "function",
            "name": "hasVoted",
            "inputs": [
                {
                    "name": "_user",
                    "type": "address",
                    "internalType": "address"
                }
            ],
            "outputs": [
                {
                    "name": "",
                    "type": "bool",
                    "internalType": "bool"
                }
            ],
            "stateMutability": "view"
        },
        {
            "type": "function",
            "name": "owner",
            "inputs": [],
            "outputs": [
                {
                    "name": "",
                    "type": "address",
                    "internalType": "address"
                }
            ],
            "stateMutability": "view"
        },
        {
            "type": "function",
            "name": "renounceOwnership",
            "inputs": [],
            "outputs": [],
            "stateMutability": "nonpayable"
        },
        {
            "type": "function",
            "name": "totalDonations",
            "inputs": [],
            "outputs": [
                {
                    "name": "",
                    "type": "uint256",
                    "internalType": "uint256"
                }
            ],
            "stateMutability": "view"
        },
        {
            "type": "function",
            "name": "totalPrincipal",
            "inputs": [],
            "outputs": [
                {
                    "name": "",
                    "type": "uint256",
                    "internalType": "uint256"
                }
            ],
            "stateMutability": "view"
        },
        {
            "type": "function",
            "name": "totalVoteWeight",
            "inputs": [],
            "outputs": [
                {
                    "name": "",
                    "type": "uint256",
                    "internalType": "uint256"
                }
            ],
            "stateMutability": "view"
        },
        {
            "type": "function",
            "name": "transferOwnership",
            "inputs": [
                {
                    "name": "newOwner",
                    "type": "address",
                    "internalType": "address"
                }
            ],
            "outputs": [],
            "stateMutability": "nonpayable"
        },
        {
            "type": "function",
            "name": "userInfo",
            "inputs": [
                {
                    "name": "",
                    "type": "address",
                    "internalType": "address"
                }
            ],
            "outputs": [
                {
                    "name": "principal",
                    "type": "uint256",
                    "internalType": "uint256"
                },
                {
                    "name": "rewardDebt",
                    "type": "uint256",
                    "internalType": "uint256"
                },
                {
                    "name": "hasVoted",
                    "type": "bool",
                    "internalType": "bool"
                }
            ],
            "stateMutability": "view"
        },
        {
            "type": "function",
            "name": "voteForConsensus",
            "inputs": [],
            "outputs": [],
            "stateMutability": "nonpayable"
        },
        {
            "type": "function",
            "name": "withdrawAll",
            "inputs": [],
            "outputs": [],
            "stateMutability": "nonpayable"
        },
        {
            "type": "event",
            "name": "ConsensusAchieved",
            "inputs": [
                {
                    "name": "totalVoteWeight",
                    "type": "uint256",
                    "indexed": false,
                    "internalType": "uint256"
                }
            ],
            "anonymous": false
        },
        {
            "type": "event",
            "name": "Deposited",
            "inputs": [
                {
                    "name": "user",
                    "type": "address",
                    "indexed": true,
                    "internalType": "address"
                },
                {
                    "name": "amount",
                    "type": "uint256",
                    "indexed": false,
                    "internalType": "uint256"
                }
            ],
            "anonymous": false
        },
        {
            "type": "event",
            "name": "Donated",
            "inputs": [
                {
                    "name": "donor",
                    "type": "address",
                    "indexed": true,
                    "internalType": "address"
                },
                {
                    "name": "amount",
                    "type": "uint256",
                    "indexed": false,
                    "internalType": "uint256"
                }
            ],
            "anonymous": false
        },
        {
            "type": "event",
            "name": "OwnershipTransferred",
            "inputs": [
                {
                    "name": "previousOwner",
                    "type": "address",
                    "indexed": true,
                    "internalType": "address"
                },
                {
                    "name": "newOwner",
                    "type": "address",
                    "indexed": true,
                    "internalType": "address"
                }
            ],
            "anonymous": false
        },
        {
            "type": "event",
            "name": "Voted",
            "inputs": [
                {
                    "name": "user",
                    "type": "address",
                    "indexed": true,
                    "internalType": "address"
                },
                {
                    "name": "voteWeight",
                    "type": "uint256",
                    "indexed": false,
                    "internalType": "uint256"
                }
            ],
            "anonymous": false
        },
        {
            "type": "event",
            "name": "Withdrawn",
            "inputs": [
                {
                    "name": "user",
                    "type": "address",
                    "indexed": true,
                    "internalType": "address"
                },
                {
                    "name": "principal",
                    "type": "uint256",
                    "indexed": false,
                    "internalType": "uint256"
                },
                {
                    "name": "reward",
                    "type": "uint256",
                    "indexed": false,
                    "internalType": "uint256"
                }
            ],
            "anonymous": false
        },
        {
            "type": "error",
            "name": "OwnableInvalidOwner",
            "inputs": [
                {
                    "name": "owner",
                    "type": "address",
                    "internalType": "address"
                }
            ]
        },
        {
            "type": "error",
            "name": "OwnableUnauthorizedAccount",
            "inputs": [
                {
                    "name": "account",
                    "type": "address",
                    "internalType": "address"
                }
            ]
        },
        {
            "type": "error",
            "name": "ReentrancyGuardReentrantCall",
            "inputs": []
        },
        {
            "type": "error",
            "name": "SafeERC20FailedOperation",
            "inputs": [
                {
                    "name": "token",
                    "type": "address",
                    "internalType": "address"
                }
            ]
        }
    ],
    "bytecode": {
        "object": "0x60803461014157601f610dea38819003918201601f19168301916001600160401b038311848410176101455780849260209460405283398101031261014157516001600160a01b038116908190036101415760017f9b779b17422d0df92223018b32b4d1fa46e071723d6817e2486d003becc55f0055331561012e575f8054336001600160a01b03198216811783556040519290916001600160a01b0316907f8be0079c531659141344cd1fd0a4f28419497f9722a3daafe3b4186f6b6457e09080a381156100ec5750600180546001600160a01b031916919091179055604051610c90908161015a8239f35b62461bcd60e51b815260206004820152601560248201527f496e76616c6964206465706f73697420746f6b656e00000000000000000000006044820152606490fd5b631e4fbdf760e01b5f525f60045260245ffd5b5f80fd5b634e487b7160e01b5f52604160045260245ffdfe60806040526004361015610011575f80fd5b5f3560e01c806307d7c6501461079857806309eef43e146107585780631959a002146107045780632f4f21e2146106cf5780634b1533b2146106b2578063715018a61461065b578063853828b6146103d65780638da5cb5b146103af578063939d62371461039257806399b1a19c14610370578063b6b55f2514610338578063c89039c514610310578063de2ed893146102f3578063e5188f55146102d6578063f14faf6f146101525763f2fde38b146100c9575f80fd5b3461014e57602036600319011261014e576100e2610959565b6100ea610a15565b6001600160a01b0316801561013b575f80546001600160a01b03198116831782556001600160a01b0316907f8be0079c531659141344cd1fd0a4f28419497f9722a3daafe3b4186f6b6457e09080a3005b631e4fbdf760e01b5f525f60045260245ffd5b5f80fd5b3461014e57602036600319011261014e5760043561016e6109dd565b60ff60065416610286578015610184811561099c565b6002541561024f576001546101a7908390309033906001600160a01b0316610ba8565b64e8d4a5100082029082820464e8d4a5100014171561023b576002548015610227576101d6910460035461096f565b6003556101e58160055461096f565b6005556040519081527f2a01595cddf097c90216094025db714da3f4e5bd8877b56ba86a24ecead8e54360203392a260015f516020610c3b5f395f51905f5255005b634e487b7160e01b5f52601260045260245ffd5b634e487b7160e01b5f52601160045260245ffd5b60405162461bcd60e51b815260206004820152600f60248201526e139bc819195c1bdcda5d1cc81e595d608a1b6044820152606490fd5b60405162461bcd60e51b815260206004820152602260248201527f436f6e73656e73757320726561636865642c20646f6e6174696f6e20636c6f73604482015261195960f21b6064820152608490fd5b3461014e575f36600319011261014e576020600454604051908152f35b3461014e575f36600319011261014e576020600554604051908152f35b3461014e575f36600319011261014e576001546040516001600160a01b039091168152602090f35b3461014e57602036600319011261014e576103516109dd565b61035d60043533610a3b565b60015f516020610c3b5f395f51905f5255005b3461014e575f36600319011261014e57602060ff600654166040519015158152f35b3461014e575f36600319011261014e576020600354604051908152f35b3461014e575f36600319011261014e575f546040516001600160a01b039091168152602090f35b3461014e575f36600319011261014e576103ee6109dd565b60ff600654161561060757335f52600760205260405f205480156105cc5761043864e8d4a510006104216003548461097c565b04335f526007602052600160405f2001549061098f565b610442818361096f565b9161044f8160025461098f565b6002908155335f908152600760205260408120818155600101555415610522575b60018060a01b03600154166040519363a9059cbb60e01b5f523360045260245260205f60448180855af160015f5114811615610503575b84604052156104f15750825260208201527f92ccf450a286a957af52509bc1c9939d1a6a481783e142e41e2499f0bb66ebc660403392a260015f516020610c3b5f395f51905f5255005b635274afe760e01b5f5260045260245ffd5b600181151661051957813b15153d1516166104a7565b843d5f823e3d90fd5b6001546040516370a0823160e01b8152306004820152919350602090829060249082906001600160a01b03165afa9081156105c1575f91610565575b5091610470565b905060203d6020116105ba575b601f8101601f1916820167ffffffffffffffff8111838210176105a65760209183916040528101031261014e57518361055e565b634e487b7160e01b5f52604160045260245ffd5b503d610572565b6040513d5f823e3d90fd5b60405162461bcd60e51b81526020600482015260136024820152724e6f7468696e6720746f20776974686472617760681b6044820152606490fd5b60405162461bcd60e51b815260206004820152602660248201527f436f6e73656e737573206e6f7420726561636865642c2063616e6e6f7420776960448201526574686472617760d01b6064820152608490fd5b3461014e575f36600319011261014e57610673610a15565b5f80546001600160a01b0319811682556001600160a01b03167f8be0079c531659141344cd1fd0a4f28419497f9722a3daafe3b4186f6b6457e08280a3005b3461014e575f36600319011261014e576020600254604051908152f35b3461014e57604036600319011261014e5761035d6106eb610959565b6106f3610a15565b6106fb6109dd565b60243590610a3b565b3461014e57602036600319011261014e576001600160a01b03610725610959565b165f526007602052606060405f2080549060ff600260018301549201541690604051928352602083015215156040820152f35b3461014e57602036600319011261014e576001600160a01b03610779610959565b165f526007602052602060ff600260405f200154166040519015158152f35b3461014e575f36600319011261014e576107b06109dd565b60ff6006541661091457335f52600760205260ff600260405f200154166108df57335f52600760205260405f205480156108a757335f526007602052600260405f2001600160ff1982541617905561080a8160045461096f565b806004558060011b8181046002148215171561023b5760025410610869575b506040519081527f4d99b957a2bc29a30ebd96a7be8e68fe50a3c701db28a91436490b7d53870ca460203392a260015f516020610c3b5f395f51905f5255005b60207f1b6b3851a58a8f4d71d961172c851f8438676eef39bc2cd21c15a5b54f2291f291600160ff196006541617600655604051908152a181610829565b60405162461bcd60e51b815260206004820152601060248201526f4e6f207374616b6520746f20766f746560801b6044820152606490fd5b60405162461bcd60e51b815260206004820152600d60248201526c105b1c9958591e481d9bdd1959609a1b6044820152606490fd5b60405162461bcd60e51b815260206004820152601960248201527f436f6e73656e73757320616c72656164792072656163686564000000000000006044820152606490fd5b600435906001600160a01b038216820361014e57565b9190820180921161023b57565b8181029291811591840414171561023b57565b9190820391821161023b57565b156109a357565b60405162461bcd60e51b81526020600482015260126024820152710416d6f756e74206d757374206265203e20360741b6044820152606490fd5b60025f516020610c3b5f395f51905f525414610a065760025f516020610c3b5f395f51905f5255565b633ee5aeb560e01b5f5260045ffd5b5f546001600160a01b03163303610a2857565b63118cdaa760e01b5f523360045260245ffd5b9060ff60065416610b5957602081610a757f2da466a7b24304f47e87fa2e1e5a81b9831ce54fec19055ce277ca2f39ba42c493151561099c565b600154610a90908290309033906001600160a01b0316610ba8565b6001600160a01b039093165f818152600783526040812054919491610b17575b610aff90610ac08360025461096f565b600255855f526007845260405f20610ad984825461096f565b9055855f526007845264e8d4a51000610af960405f20546003549061097c565b0461098f565b845f5260078352600160405f200155604051908152a2565b50835f5260078252610aff610b5264e8d4a51000610b3c60405f20546003549061097c565b04865f5260078552600160405f2001549061098f565b9050610ab0565b60405162461bcd60e51b815260206004820152602160248201527f436f6e73656e73757320726561636865642c206465706f73697420636c6f73656044820152601960fa1b6064820152608490fd5b6040516323b872dd60e01b5f9081526001600160a01b039384166004529290931660245260449390935260209060648180865af19060015f5114821615610c19575b6040525f60605215610bf95750565b635274afe760e01b5f9081526001600160a01b0391909116600452602490fd5b906001811516610c3157823b15153d15161690610bea565b503d5f823e3d90fdfe9b779b17422d0df92223018b32b4d1fa46e071723d6817e2486d003becc55f00a2646970667358221220f8c2708a8e27abef530ded20757f80d07f1e32983c4811e3572a5018db7c42ab64736f6c634300081c0033",
        "linkReferences": {}
    },
    "methodIdentifiers": {
        "accRewardPerShare()": "939d6237",
        "consensusReached()": "99b1a19c",
        "deposit(uint256)": "b6b55f25",
        "depositFor(address,uint256)": "2f4f21e2",
        "depositToken()": "c89039c5",
        "donate(uint256)": "f14faf6f",
        "hasVoted(address)": "09eef43e",
        "owner()": "8da5cb5b",
        "renounceOwnership()": "715018a6",
        "totalDonations()": "de2ed893",
        "totalPrincipal()": "4b1533b2",
        "totalVoteWeight()": "e5188f55",
        "transferOwnership(address)": "f2fde38b",
        "userInfo(address)": "1959a002",
        "voteForConsensus()": "07d7c650",
        "withdrawAll()": "853828b6"
    },
    "id": 26
}